{
  "_format": "hh-sol-artifact-1",
  "contractName": "MyEpicNFT",
  "sourceName": "contracts/MyEpicNFT.sol",
  "abi": [
    {
      "inputs": [],
      "stateMutability": "nonpayable",
      "type": "constructor"
    },
    {
      "anonymous": false,
      "inputs": [
        {
          "indexed": true,
          "internalType": "address",
          "name": "owner",
          "type": "address"
        },
        {
          "indexed": true,
          "internalType": "address",
          "name": "approved",
          "type": "address"
        },
        {
          "indexed": true,
          "internalType": "uint256",
          "name": "tokenId",
          "type": "uint256"
        }
      ],
      "name": "Approval",
      "type": "event"
    },
    {
      "anonymous": false,
      "inputs": [
        {
          "indexed": true,
          "internalType": "address",
          "name": "owner",
          "type": "address"
        },
        {
          "indexed": true,
          "internalType": "address",
          "name": "operator",
          "type": "address"
        },
        {
          "indexed": false,
          "internalType": "bool",
          "name": "approved",
          "type": "bool"
        }
      ],
      "name": "ApprovalForAll",
      "type": "event"
    },
    {
      "anonymous": false,
      "inputs": [
        {
          "indexed": false,
          "internalType": "address",
          "name": "sender",
          "type": "address"
        },
        {
          "indexed": false,
          "internalType": "uint256",
          "name": "tokenId",
          "type": "uint256"
        }
      ],
      "name": "NewEpicNFTMinted",
      "type": "event"
    },
    {
      "anonymous": false,
      "inputs": [
        {
          "indexed": true,
          "internalType": "address",
          "name": "from",
          "type": "address"
        },
        {
          "indexed": true,
          "internalType": "address",
          "name": "to",
          "type": "address"
        },
        {
          "indexed": true,
          "internalType": "uint256",
          "name": "tokenId",
          "type": "uint256"
        }
      ],
      "name": "Transfer",
      "type": "event"
    },
    {
      "inputs": [
        {
          "internalType": "address",
          "name": "to",
          "type": "address"
        },
        {
          "internalType": "uint256",
          "name": "tokenId",
          "type": "uint256"
        }
      ],
      "name": "approve",
      "outputs": [],
      "stateMutability": "nonpayable",
      "type": "function"
    },
    {
      "inputs": [
        {
          "internalType": "address",
          "name": "owner",
          "type": "address"
        }
      ],
      "name": "balanceOf",
      "outputs": [
        {
          "internalType": "uint256",
          "name": "",
          "type": "uint256"
        }
      ],
      "stateMutability": "view",
      "type": "function"
    },
    {
      "inputs": [
        {
          "internalType": "uint256",
          "name": "tokenId",
          "type": "uint256"
        }
      ],
      "name": "getApproved",
      "outputs": [
        {
          "internalType": "address",
          "name": "",
          "type": "address"
        }
      ],
      "stateMutability": "view",
      "type": "function"
    },
    {
      "inputs": [
        {
          "internalType": "address",
          "name": "owner",
          "type": "address"
        },
        {
          "internalType": "address",
          "name": "operator",
          "type": "address"
        }
      ],
      "name": "isApprovedForAll",
      "outputs": [
        {
          "internalType": "bool",
          "name": "",
          "type": "bool"
        }
      ],
      "stateMutability": "view",
      "type": "function"
    },
    {
      "inputs": [],
      "name": "makeAnEpicNFT",
      "outputs": [],
      "stateMutability": "nonpayable",
      "type": "function"
    },
    {
      "inputs": [],
      "name": "name",
      "outputs": [
        {
          "internalType": "string",
          "name": "",
          "type": "string"
        }
      ],
      "stateMutability": "view",
      "type": "function"
    },
    {
      "inputs": [
        {
          "internalType": "uint256",
          "name": "tokenId",
          "type": "uint256"
        }
      ],
      "name": "ownerOf",
      "outputs": [
        {
          "internalType": "address",
          "name": "",
          "type": "address"
        }
      ],
      "stateMutability": "view",
      "type": "function"
    },
    {
      "inputs": [
        {
          "internalType": "uint256",
          "name": "tokenId",
          "type": "uint256"
        }
      ],
      "name": "pickRandomColor",
      "outputs": [
        {
          "internalType": "string",
          "name": "",
          "type": "string"
        }
      ],
      "stateMutability": "view",
      "type": "function"
    },
    {
      "inputs": [
        {
          "internalType": "uint256",
          "name": "tokenId",
          "type": "uint256"
        }
      ],
      "name": "pickRandomFirstWord",
      "outputs": [
        {
          "internalType": "string",
          "name": "",
          "type": "string"
        }
      ],
      "stateMutability": "view",
      "type": "function"
    },
    {
      "inputs": [
        {
          "internalType": "uint256",
          "name": "tokenId",
          "type": "uint256"
        }
      ],
      "name": "pickRandomSecondWord",
      "outputs": [
        {
          "internalType": "string",
          "name": "",
          "type": "string"
        }
      ],
      "stateMutability": "view",
      "type": "function"
    },
    {
      "inputs": [
        {
          "internalType": "uint256",
          "name": "tokenId",
          "type": "uint256"
        }
      ],
      "name": "pickRandomThirdWord",
      "outputs": [
        {
          "internalType": "string",
          "name": "",
          "type": "string"
        }
      ],
      "stateMutability": "view",
      "type": "function"
    },
    {
      "inputs": [
        {
          "internalType": "address",
          "name": "from",
          "type": "address"
        },
        {
          "internalType": "address",
          "name": "to",
          "type": "address"
        },
        {
          "internalType": "uint256",
          "name": "tokenId",
          "type": "uint256"
        }
      ],
      "name": "safeTransferFrom",
      "outputs": [],
      "stateMutability": "nonpayable",
      "type": "function"
    },
    {
      "inputs": [
        {
          "internalType": "address",
          "name": "from",
          "type": "address"
        },
        {
          "internalType": "address",
          "name": "to",
          "type": "address"
        },
        {
          "internalType": "uint256",
          "name": "tokenId",
          "type": "uint256"
        },
        {
          "internalType": "bytes",
          "name": "_data",
          "type": "bytes"
        }
      ],
      "name": "safeTransferFrom",
      "outputs": [],
      "stateMutability": "nonpayable",
      "type": "function"
    },
    {
      "inputs": [
        {
          "internalType": "address",
          "name": "operator",
          "type": "address"
        },
        {
          "internalType": "bool",
          "name": "approved",
          "type": "bool"
        }
      ],
      "name": "setApprovalForAll",
      "outputs": [],
      "stateMutability": "nonpayable",
      "type": "function"
    },
    {
      "inputs": [
        {
          "internalType": "bytes4",
          "name": "interfaceId",
          "type": "bytes4"
        }
      ],
      "name": "supportsInterface",
      "outputs": [
        {
          "internalType": "bool",
          "name": "",
          "type": "bool"
        }
      ],
      "stateMutability": "view",
      "type": "function"
    },
    {
      "inputs": [],
      "name": "symbol",
      "outputs": [
        {
          "internalType": "string",
          "name": "",
          "type": "string"
        }
      ],
      "stateMutability": "view",
      "type": "function"
    },
    {
      "inputs": [
        {
          "internalType": "uint256",
          "name": "tokenId",
          "type": "uint256"
        }
      ],
      "name": "tokenURI",
      "outputs": [
        {
          "internalType": "string",
          "name": "",
          "type": "string"
        }
      ],
      "stateMutability": "view",
      "type": "function"
    },
    {
      "inputs": [],
      "name": "totalMinted",
      "outputs": [
        {
          "internalType": "uint256",
          "name": "",
          "type": "uint256"
        }
      ],
      "stateMutability": "view",
      "type": "function"
    },
    {
      "inputs": [],
      "name": "totalSupply",
      "outputs": [
        {
          "internalType": "uint256",
          "name": "",
          "type": "uint256"
        }
      ],
      "stateMutability": "view",
      "type": "function"
    },
    {
      "inputs": [
        {
          "internalType": "address",
          "name": "from",
          "type": "address"
        },
        {
          "internalType": "address",
          "name": "to",
          "type": "address"
        },
        {
          "internalType": "uint256",
          "name": "tokenId",
          "type": "uint256"
        }
      ],
      "name": "transferFrom",
      "outputs": [],
      "stateMutability": "nonpayable",
      "type": "function"
    }
  ],
  "bytecode": "0x60806040526000600855606460095560405180610100016040528060d3815260200162004ff760d39139600a908051906020019062000040929190620010fb565b50604051806080016040528060568152602001620050ca60569139600b908051906020019062000072929190620010fb565b506040518061020001604052806040518060400160405280600381526020017f426967000000000000000000000000000000000000000000000000000000000081525081526020016040518060400160405280600481526020017f486172640000000000000000000000000000000000000000000000000000000081525081526020016040518060400160405280600481526020017f5761726d0000000000000000000000000000000000000000000000000000000081525081526020016040518060400160405280600481526020017f437574650000000000000000000000000000000000000000000000000000000081525081526020016040518060400160405280600681526020017f46696c746879000000000000000000000000000000000000000000000000000081525081526020016040518060400160405280600481526020017f457069630000000000000000000000000000000000000000000000000000000081525081526020016040518060400160405280600481526020017f55676c790000000000000000000000000000000000000000000000000000000081525081526020016040518060400160405280600481526020017f5a6177610000000000000000000000000000000000000000000000000000000081525081526020016040518060400160405280600581526020017f576569726400000000000000000000000000000000000000000000000000000081525081526020016040518060400160405280600381526020017f506f67000000000000000000000000000000000000000000000000000000000081525081526020016040518060400160405280600381526020017f4b656b000000000000000000000000000000000000000000000000000000000081525081526020016040518060400160405280600681526020017f4372696e6765000000000000000000000000000000000000000000000000000081525081526020016040518060400160405280600481526020017f4d61796f0000000000000000000000000000000000000000000000000000000081525081526020016040518060400160405280600681526020017f466c75666679000000000000000000000000000000000000000000000000000081525081526020016040518060400160405280600581526020017f526f75676800000000000000000000000000000000000000000000000000000081525081526020016040518060400160405280600981526020017f457870616e736976650000000000000000000000000000000000000000000000815250815250600c9060106200043f9291906200118c565b506040518061028001604052806040518060400160405280600381526020017f527975000000000000000000000000000000000000000000000000000000000081525081526020016040518060400160405280600581526020017f46616b657200000000000000000000000000000000000000000000000000000081525081526020016040518060400160405280600681526020017f5869616f6875000000000000000000000000000000000000000000000000000081525081526020016040518060400160405280600581526020017f43686f767900000000000000000000000000000000000000000000000000000081525081526020016040518060400160405280600a81526020017f446f75626c656c6966740000000000000000000000000000000000000000000081525081526020016040518060400160405280600681526020017f4a656e73656e000000000000000000000000000000000000000000000000000081525081526020016040518060400160405280600381526020017f557a69000000000000000000000000000000000000000000000000000000000081525081526020016040518060400160405280600681526020017f536e65616b79000000000000000000000000000000000000000000000000000081525081526020016040518060400160405280600681526020017f4d6574656f73000000000000000000000000000000000000000000000000000081525081526020016040518060400160405280600581526020017f52756c657200000000000000000000000000000000000000000000000000000081525081526020016040518060400160405280600481526020017f446566740000000000000000000000000000000000000000000000000000000081525081526020016040518060400160405280600681526020017f4b6e69676874000000000000000000000000000000000000000000000000000081525081526020016040518060400160405280600581526020017f4c6967687400000000000000000000000000000000000000000000000000000081525081526020016040518060400160405280600681526020017f5461727a616e000000000000000000000000000000000000000000000000000081525081526020016040518060400160405280600781526020017f52656b6b6c65730000000000000000000000000000000000000000000000000081525081526020016040518060400160405280600581526020017f5065726b7a00000000000000000000000000000000000000000000000000000081525081526020016040518060400160405280600481526020017f436170730000000000000000000000000000000000000000000000000000000081525081526020016040518060400160405280600581526020017f427769706f00000000000000000000000000000000000000000000000000000081525081526020016040518060400160405280600581526020017f41726d757400000000000000000000000000000000000000000000000000000081525081526020016040518060400160405280600681526020017f4b61697365720000000000000000000000000000000000000000000000000000815250815250600d906014620008f8929190620011f3565b506040518061028001604052806040518060400160405280600581526020017f4b4b6f6e6100000000000000000000000000000000000000000000000000000081525081526020016040518060400160405280600881526020017f44616e7347616d6500000000000000000000000000000000000000000000000081525081526020016040518060400160405280600681526020017f4d6f6e6b6153000000000000000000000000000000000000000000000000000081525081526020016040518060400160405280600681526020017f5061676d616e000000000000000000000000000000000000000000000000000081525081526020016040518060400160405280600481526020017f4b656b570000000000000000000000000000000000000000000000000000000081525081526020016040518060400160405280600981526020017f4d6f6e6b6147494741000000000000000000000000000000000000000000000081525081526020016040518060400160405280600981526020017f506570656c61756768000000000000000000000000000000000000000000000081525081526020016040518060400160405280600881526020017f4f6d6567616c756c00000000000000000000000000000000000000000000000081525081526020016040518060400160405280600581526020017f506570654400000000000000000000000000000000000000000000000000000081525081526020016040518060400160405280600681526020017f4361746a616d000000000000000000000000000000000000000000000000000081525081526020016040518060400160405280600581526020017f536164676500000000000000000000000000000000000000000000000000000081525081526020016040518060400160405280600581526020017f4d6164676500000000000000000000000000000000000000000000000000000081525081526020016040518060400160405280600581526020017f426564676500000000000000000000000000000000000000000000000000000081525081526020016040518060400160405280600781526020017f547269486172640000000000000000000000000000000000000000000000000081525081526020016040518060400160405280600881526020017f466f7273656e434400000000000000000000000000000000000000000000000081525081526020016040518060400160405280600a81526020017f446f65736e744b6e6f770000000000000000000000000000000000000000000081525081526020016040518060400160405280600781526020017f556e6c75636b790000000000000000000000000000000000000000000000000081525081526020016040518060400160405280600a81526020017f4e657665724c75636b790000000000000000000000000000000000000000000081525081526020016040518060400160405280600881526020017f426162795261676500000000000000000000000000000000000000000000000081525081526020016040518060400160405280600881526020017f506f674368616d70000000000000000000000000000000000000000000000000815250815250600e90601462000db1929190620011f3565b506040518060c001604052806040518060400160405280600381526020017f726564000000000000000000000000000000000000000000000000000000000081525081526020016040518060400160405280600781526020017f233038433241380000000000000000000000000000000000000000000000000081525081526020016040518060400160405280600581526020017f626c61636b00000000000000000000000000000000000000000000000000000081525081526020016040518060400160405280600681526020017f79656c6c6f77000000000000000000000000000000000000000000000000000081525081526020016040518060400160405280600481526020017f626c75650000000000000000000000000000000000000000000000000000000081525081526020016040518060400160405280600581526020017f677265656e000000000000000000000000000000000000000000000000000000815250815250600f90600662000f2f9291906200125a565b5034801562000f3d57600080fd5b506040518060400160405280600981526020017f5371756172654e465400000000000000000000000000000000000000000000008152506040518060400160405280600681526020017f5351554152450000000000000000000000000000000000000000000000000000815250816000908051906020019062000fc2929190620010fb565b50806001908051906020019062000fdb929190620010fb565b505050620010296040518060400160405280601e81526020017f54686973206973206d79204e465420636f6e74726163742e20576f61682100008152506200102f60201b620014511760201c565b6200147b565b620010cf816040516024016200104691906200138f565b6040516020818303038152906040527f41304fac000000000000000000000000000000000000000000000000000000007bffffffffffffffffffffffffffffffffffffffffffffffffffffffff19166020820180517bffffffffffffffffffffffffffffffffffffffffffffffffffffffff8381831617835250505050620010d260201b60201c565b50565b60008151905060006a636f6e736f6c652e6c6f679050602083016000808483855afa5050505050565b828054620011099062001405565b90600052602060002090601f0160209004810192826200112d576000855562001179565b82601f106200114857805160ff191683800117855562001179565b8280016001018555821562001179579182015b82811115620011785782518255916020019190600101906200115b565b5b509050620011889190620012c1565b5090565b828054828255906000526020600020908101928215620011e0579160200282015b82811115620011df578251829080519060200190620011ce929190620010fb565b5091602001919060010190620011ad565b5b509050620011ef9190620012e0565b5090565b82805482825590600052602060002090810192821562001247579160200282015b828111156200124657825182908051906020019062001235929190620010fb565b509160200191906001019062001214565b5b509050620012569190620012e0565b5090565b828054828255906000526020600020908101928215620012ae579160200282015b82811115620012ad5782518290805190602001906200129c929190620010fb565b50916020019190600101906200127b565b5b509050620012bd9190620012e0565b5090565b5b80821115620012dc576000816000905550600101620012c2565b5090565b5b80821115620013045760008181620012fa919062001308565b50600101620012e1565b5090565b508054620013169062001405565b6000825580601f106200132a57506200134b565b601f0160209004906000526020600020908101906200134a9190620012c1565b5b50565b60006200135b82620013b3565b620013678185620013be565b935062001379818560208601620013cf565b62001384816200146a565b840191505092915050565b60006020820190508181036000830152620013ab81846200134e565b905092915050565b600081519050919050565b600082825260208201905092915050565b60005b83811015620013ef578082015181840152602081019050620013d2565b83811115620013ff576000848401525b50505050565b600060028204905060018216806200141e57607f821691505b602082108114156200143557620014346200143b565b5b50919050565b7f4e487b7100000000000000000000000000000000000000000000000000000000600052602260045260246000fd5b6000601f19601f8301169050919050565b613b6c806200148b6000396000f3fe608060405234801561001057600080fd5b506004361061012c5760003560e01c806370a08231116100ad578063b88d4fde11610071578063b88d4fde14610369578063c575757a14610385578063c87b56dd146103b5578063de9d132f146103e5578063e985e9c5146103ef5761012c565b806370a08231146102b157806395d89b41146102e1578063a22cb465146102ff578063a2309ff81461031b578063b187301f146103395761012c565b806323b872dd116100f457806323b872dd146101e95780632de38d681461020557806342842e0e14610235578063514dc8c6146102515780636352211e146102815761012c565b806301ffc9a71461013157806306fdde0314610161578063081812fc1461017f578063095ea7b3146101af57806318160ddd146101cb575b600080fd5b61014b600480360381019061014691906126e4565b61041f565b60405161015891906133c2565b60405180910390f35b610169610501565b60405161017691906133dd565b60405180910390f35b61019960048036038101906101949190612736565b610593565b6040516101a69190613332565b60405180910390f35b6101c960048036038101906101c491906126a8565b610618565b005b6101d3610730565b6040516101e0919061365d565b60405180910390f35b61020360048036038101906101fe91906125a2565b610736565b005b61021f600480360381019061021a9190612736565b610796565b60405161022c91906133dd565b60405180910390f35b61024f600480360381019061024a91906125a2565b6108b4565b005b61026b60048036038101906102669190612736565b6108d4565b60405161027891906133dd565b60405180910390f35b61029b60048036038101906102969190612736565b6109f2565b6040516102a89190613332565b60405180910390f35b6102cb60048036038101906102c6919061253d565b610aa4565b6040516102d8919061365d565b60405180910390f35b6102e9610b5c565b6040516102f691906133dd565b60405180910390f35b6103196004803603810190610314919061266c565b610bee565b005b610323610d6f565b604051610330919061365d565b60405180910390f35b610353600480360381019061034e9190612736565b610d75565b60405161036091906133dd565b60405180910390f35b610383600480360381019061037e91906125f1565b610e93565b005b61039f600480360381019061039a9190612736565b610ef5565b6040516103ac91906133dd565b60405180910390f35b6103cf60048036038101906103ca9190612736565b611013565b6040516103dc91906133dd565b60405180910390f35b6103ed611165565b005b61040960048036038101906104049190612566565b6113bd565b60405161041691906133c2565b60405180910390f35b60007f80ac58cd000000000000000000000000000000000000000000000000000000007bffffffffffffffffffffffffffffffffffffffffffffffffffffffff1916827bffffffffffffffffffffffffffffffffffffffffffffffffffffffff191614806104ea57507f5b5e139f000000000000000000000000000000000000000000000000000000007bffffffffffffffffffffffffffffffffffffffffffffffffffffffff1916827bffffffffffffffffffffffffffffffffffffffffffffffffffffffff1916145b806104fa57506104f9826114ea565b5b9050919050565b606060008054610510906138fc565b80601f016020809104026020016040519081016040528092919081815260200182805461053c906138fc565b80156105895780601f1061055e57610100808354040283529160200191610589565b820191906000526020600020905b81548152906001019060200180831161056c57829003601f168201915b5050505050905090565b600061059e82611554565b6105dd576040517f08c379a00000000000000000000000000000000000000000000000000000000081526004016105d49061359d565b60405180910390fd5b6004600083815260200190815260200160002060009054906101000a900473ffffffffffffffffffffffffffffffffffffffff169050919050565b6000610623826109f2565b90508073ffffffffffffffffffffffffffffffffffffffff168373ffffffffffffffffffffffffffffffffffffffff161415610694576040517f08c379a000000000000000000000000000000000000000000000000000000000815260040161068b906135fd565b60405180910390fd5b8073ffffffffffffffffffffffffffffffffffffffff166106b36115c0565b73ffffffffffffffffffffffffffffffffffffffff1614806106e257506106e1816106dc6115c0565b6113bd565b5b610721576040517f08c379a0000000000000000000000000000000000000000000000000000000008152600401610718906134dd565b60405180910390fd5b61072b83836115c8565b505050565b60095481565b6107476107416115c0565b82611681565b610786576040517f08c379a000000000000000000000000000000000000000000000000000000000815260040161077d9061361d565b60405180910390fd5b61079183838361175f565b505050565b606060006107ca6107a6846119bb565b6040516020016107b691906132cc565b604051602081830303815290604052611b68565b9050600c80549050816107dd9190613977565b9050600c8181548110610819577f4e487b7100000000000000000000000000000000000000000000000000000000600052603260045260246000fd5b90600052602060002001805461082e906138fc565b80601f016020809104026020016040519081016040528092919081815260200182805461085a906138fc565b80156108a75780601f1061087c576101008083540402835291602001916108a7565b820191906000526020600020905b81548152906001019060200180831161088a57829003601f168201915b5050505050915050919050565b6108cf83838360405180602001604052806000815250610e93565b505050565b606060006109086108e4846119bb565b6040516020016108f49190613310565b604051602081830303815290604052611b68565b9050600f805490508161091b9190613977565b9050600f8181548110610957577f4e487b7100000000000000000000000000000000000000000000000000000000600052603260045260246000fd5b90600052602060002001805461096c906138fc565b80601f0160208091040260200160405190810160405280929190818152602001828054610998906138fc565b80156109e55780601f106109ba576101008083540402835291602001916109e5565b820191906000526020600020905b8154815290600101906020018083116109c857829003601f168201915b5050505050915050919050565b6000806002600084815260200190815260200160002060009054906101000a900473ffffffffffffffffffffffffffffffffffffffff169050600073ffffffffffffffffffffffffffffffffffffffff168173ffffffffffffffffffffffffffffffffffffffff161415610a9b576040517f08c379a0000000000000000000000000000000000000000000000000000000008152600401610a929061351d565b60405180910390fd5b80915050919050565b60008073ffffffffffffffffffffffffffffffffffffffff168273ffffffffffffffffffffffffffffffffffffffff161415610b15576040517f08c379a0000000000000000000000000000000000000000000000000000000008152600401610b0c906134fd565b60405180910390fd5b600360008373ffffffffffffffffffffffffffffffffffffffff1673ffffffffffffffffffffffffffffffffffffffff168152602001908152602001600020549050919050565b606060018054610b6b906138fc565b80601f0160208091040260200160405190810160405280929190818152602001828054610b97906138fc565b8015610be45780601f10610bb957610100808354040283529160200191610be4565b820191906000526020600020905b815481529060010190602001808311610bc757829003601f168201915b5050505050905090565b610bf66115c0565b73ffffffffffffffffffffffffffffffffffffffff168273ffffffffffffffffffffffffffffffffffffffff161415610c64576040517f08c379a0000000000000000000000000000000000000000000000000000000008152600401610c5b9061349d565b60405180910390fd5b8060056000610c716115c0565b73ffffffffffffffffffffffffffffffffffffffff1673ffffffffffffffffffffffffffffffffffffffff16815260200190815260200160002060008473ffffffffffffffffffffffffffffffffffffffff1673ffffffffffffffffffffffffffffffffffffffff16815260200190815260200160002060006101000a81548160ff0219169083151502179055508173ffffffffffffffffffffffffffffffffffffffff16610d1e6115c0565b73ffffffffffffffffffffffffffffffffffffffff167f17307eab39ab6107e8899845ad3d59bd9653f200f220920489ca2b5937696c3183604051610d6391906133c2565b60405180910390a35050565b60085481565b60606000610da9610d85846119bb565b604051602001610d959190613265565b604051602081830303815290604052611b68565b9050600d8054905081610dbc9190613977565b9050600d8181548110610df8577f4e487b7100000000000000000000000000000000000000000000000000000000600052603260045260246000fd5b906000526020600020018054610e0d906138fc565b80601f0160208091040260200160405190810160405280929190818152602001828054610e39906138fc565b8015610e865780601f10610e5b57610100808354040283529160200191610e86565b820191906000526020600020905b815481529060010190602001808311610e6957829003601f168201915b5050505050915050919050565b610ea4610e9e6115c0565b83611681565b610ee3576040517f08c379a0000000000000000000000000000000000000000000000000000000008152600401610eda9061361d565b60405180910390fd5b610eef84848484611b9b565b50505050565b60606000610f29610f05846119bb565b604051602001610f159190613243565b604051602081830303815290604052611b68565b9050600e8054905081610f3c9190613977565b9050600e8181548110610f78577f4e487b7100000000000000000000000000000000000000000000000000000000600052603260045260246000fd5b906000526020600020018054610f8d906138fc565b80601f0160208091040260200160405190810160405280929190818152602001828054610fb9906138fc565b80156110065780601f10610fdb57610100808354040283529160200191611006565b820191906000526020600020905b815481529060010190602001808311610fe957829003601f168201915b5050505050915050919050565b606061101e82611554565b61105d576040517f08c379a00000000000000000000000000000000000000000000000000000000081526004016110549061357d565b60405180910390fd5b600060066000848152602001908152602001600020805461107d906138fc565b80601f01602080910402602001604051908101604052809291908181526020018280546110a9906138fc565b80156110f65780601f106110cb576101008083540402835291602001916110f6565b820191906000526020600020905b8154815290600101906020018083116110d957829003601f168201915b505050505090506000611107611bf7565b905060008151141561111d578192505050611160565b60008251111561115257808260405160200161113a9291906131a5565b60405160208183030381529060405292505050611160565b61115b84611c0e565b925050505b919050565b600954600854106111ab576040517f08c379a00000000000000000000000000000000000000000000000000000000081526004016111a29061363d565b60405180910390fd5b600860008154809291906111be9061392e565b919050555060006111cf6007611cb5565b905060006111dc82610796565b905060006111e983610d75565b905060006111f684610ef5565b9050600083838360405160200161120f939291906131c9565b6040516020818303038152906040529050600061122b866108d4565b90506000600a82600b8560405160200161124894939291906131fa565b6040516020818303038152906040529050600061128d8461126884611cc3565b604051602001611279929190613287565b604051602081830303815290604052611cc3565b90506000816040516020016112a291906132ee565b60405160208183030381529060405290506112f16040518060400160405280601581526020017f0a2d2d2d2d2d2d2d2d2d2d2d2d2d2d2d2d2d2d2d2d0000000000000000000000815250611451565b6112fa81611451565b6113386040518060400160405280601581526020017f2d2d2d2d2d2d2d2d2d2d2d2d2d2d2d2d2d2d2d2d0a0000000000000000000000815250611451565b611342338a611e81565b61134c8982611e9f565b6113566007611f13565b611379604051806060016040528060258152602001613ad2602591398a33611f29565b7febb98688741ffa4c7589bf325de30cf7becb63de567842e1ccdb6cb949fdc82c338a6040516113aa929190613399565b60405180910390a1505050505050505050565b6000600560008473ffffffffffffffffffffffffffffffffffffffff1673ffffffffffffffffffffffffffffffffffffffff16815260200190815260200160002060008373ffffffffffffffffffffffffffffffffffffffff1673ffffffffffffffffffffffffffffffffffffffff16815260200190815260200160002060009054906101000a900460ff16905092915050565b6114e78160405160240161146591906133dd565b6040516020818303038152906040527f41304fac000000000000000000000000000000000000000000000000000000007bffffffffffffffffffffffffffffffffffffffffffffffffffffffff19166020820180517bffffffffffffffffffffffffffffffffffffffffffffffffffffffff8381831617835250505050611fc8565b50565b60007f01ffc9a7000000000000000000000000000000000000000000000000000000007bffffffffffffffffffffffffffffffffffffffffffffffffffffffff1916827bffffffffffffffffffffffffffffffffffffffffffffffffffffffff1916149050919050565b60008073ffffffffffffffffffffffffffffffffffffffff166002600084815260200190815260200160002060009054906101000a900473ffffffffffffffffffffffffffffffffffffffff1673ffffffffffffffffffffffffffffffffffffffff1614159050919050565b600033905090565b816004600083815260200190815260200160002060006101000a81548173ffffffffffffffffffffffffffffffffffffffff021916908373ffffffffffffffffffffffffffffffffffffffff160217905550808273ffffffffffffffffffffffffffffffffffffffff1661163b836109f2565b73ffffffffffffffffffffffffffffffffffffffff167f8c5be1e5ebec7d5bd14f71427d1e84f3dd0314c0f7b2291e5b200ac8c7c3b92560405160405180910390a45050565b600061168c82611554565b6116cb576040517f08c379a00000000000000000000000000000000000000000000000000000000081526004016116c2906134bd565b60405180910390fd5b60006116d6836109f2565b90508073ffffffffffffffffffffffffffffffffffffffff168473ffffffffffffffffffffffffffffffffffffffff16148061174557508373ffffffffffffffffffffffffffffffffffffffff1661172d84610593565b73ffffffffffffffffffffffffffffffffffffffff16145b80611756575061175581856113bd565b5b91505092915050565b8273ffffffffffffffffffffffffffffffffffffffff1661177f826109f2565b73ffffffffffffffffffffffffffffffffffffffff16146117d5576040517f08c379a00000000000000000000000000000000000000000000000000000000081526004016117cc906135bd565b60405180910390fd5b600073ffffffffffffffffffffffffffffffffffffffff168273ffffffffffffffffffffffffffffffffffffffff161415611845576040517f08c379a000000000000000000000000000000000000000000000000000000000815260040161183c9061347d565b60405180910390fd5b611850838383611ff1565b61185b6000826115c8565b6001600360008573ffffffffffffffffffffffffffffffffffffffff1673ffffffffffffffffffffffffffffffffffffffff16815260200190815260200160002060008282546118ab9190613812565b925050819055506001600360008473ffffffffffffffffffffffffffffffffffffffff1673ffffffffffffffffffffffffffffffffffffffff16815260200190815260200160002060008282546119029190613731565b92505081905550816002600083815260200190815260200160002060006101000a81548173ffffffffffffffffffffffffffffffffffffffff021916908373ffffffffffffffffffffffffffffffffffffffff160217905550808273ffffffffffffffffffffffffffffffffffffffff168473ffffffffffffffffffffffffffffffffffffffff167fddf252ad1be2c89b69c2b068fc378daa952ba7f163c4a11628f55a4df523b3ef60405160405180910390a4505050565b60606000821415611a03576040518060400160405280600181526020017f30000000000000000000000000000000000000000000000000000000000000008152509050611b63565b600082905060005b60008214611a35578080611a1e9061392e565b915050600a82611a2e9190613787565b9150611a0b565b60008167ffffffffffffffff811115611a77577f4e487b7100000000000000000000000000000000000000000000000000000000600052604160045260246000fd5b6040519080825280601f01601f191660200182016040528015611aa95781602001600182028036833780820191505090505b5090505b60008514611b5c57600182611ac29190613812565b9150600a85611ad19190613977565b6030611add9190613731565b60f81b818381518110611b19577f4e487b7100000000000000000000000000000000000000000000000000000000600052603260045260246000fd5b60200101907effffffffffffffffffffffffffffffffffffffffffffffffffffffffffffff1916908160001a905350600a85611b559190613787565b9450611aad565b8093505050505b919050565b600081604051602001611b7b919061318e565b6040516020818303038152906040528051906020012060001c9050919050565b611ba684848461175f565b611bb284848484611ff6565b611bf1576040517f08c379a0000000000000000000000000000000000000000000000000000000008152600401611be89061343d565b60405180910390fd5b50505050565b606060405180602001604052806000815250905090565b6060611c1982611554565b611c58576040517f08c379a0000000000000000000000000000000000000000000000000000000008152600401611c4f906135dd565b60405180910390fd5b6000611c62611bf7565b90506000815111611c825760405180602001604052806000815250611cad565b80611c8c846119bb565b604051602001611c9d9291906131a5565b6040516020818303038152906040525b915050919050565b600081600001549050919050565b60606000825190506000811415611cec5760405180602001604052806000815250915050611e7c565b60006003600283611cfd9190613731565b611d079190613787565b6004611d1391906137b8565b90506000602082611d249190613731565b67ffffffffffffffff811115611d63577f4e487b7100000000000000000000000000000000000000000000000000000000600052604160045260246000fd5b6040519080825280601f01601f191660200182016040528015611d955781602001600182028036833780820191505090505b5090506000604051806060016040528060408152602001613af7604091399050600181016020830160005b86811015611e395760038101905062ffffff818a015116603f8160121c168401518060081b905060ff603f83600c1c1686015116810190508060081b905060ff603f8360061c1686015116810190508060081b905060ff603f831686015116810190508060e01b90508084526004840193505050611dc0565b506003860660018114611e535760028114611e6357611e6e565b613d3d60f01b6002830352611e6e565b603d60f81b60018303525b508484525050819450505050505b919050565b611e9b82826040518060200160405280600081525061218d565b5050565b611ea882611554565b611ee7576040517f08c379a0000000000000000000000000000000000000000000000000000000008152600401611ede9061353d565b60405180910390fd5b80600660008481526020019081526020016000209080519060200190611f0e9291906123c9565b505050565b6001816000016000828254019250508190555050565b611fc3838383604051602401611f41939291906133ff565b6040516020818303038152906040527fe3849f79000000000000000000000000000000000000000000000000000000007bffffffffffffffffffffffffffffffffffffffffffffffffffffffff19166020820180517bffffffffffffffffffffffffffffffffffffffffffffffffffffffff8381831617835250505050611fc8565b505050565b60008151905060006a636f6e736f6c652e6c6f679050602083016000808483855afa5050505050565b505050565b60006120178473ffffffffffffffffffffffffffffffffffffffff166121e8565b15612180578373ffffffffffffffffffffffffffffffffffffffff1663150b7a026120406115c0565b8786866040518563ffffffff1660e01b8152600401612062949392919061334d565b602060405180830381600087803b15801561207c57600080fd5b505af19250505080156120ad57506040513d601f19601f820116820180604052508101906120aa919061270d565b60015b612130573d80600081146120dd576040519150601f19603f3d011682016040523d82523d6000602084013e6120e2565b606091505b50600081511415612128576040517f08c379a000000000000000000000000000000000000000000000000000000000815260040161211f9061343d565b60405180910390fd5b805181602001fd5b63150b7a0260e01b7bffffffffffffffffffffffffffffffffffffffffffffffffffffffff1916817bffffffffffffffffffffffffffffffffffffffffffffffffffffffff191614915050612185565b600190505b949350505050565b61219783836121fb565b6121a46000848484611ff6565b6121e3576040517f08c379a00000000000000000000000000000000000000000000000000000000081526004016121da9061343d565b60405180910390fd5b505050565b600080823b905060008111915050919050565b600073ffffffffffffffffffffffffffffffffffffffff168273ffffffffffffffffffffffffffffffffffffffff16141561226b576040517f08c379a00000000000000000000000000000000000000000000000000000000081526004016122629061355d565b60405180910390fd5b61227481611554565b156122b4576040517f08c379a00000000000000000000000000000000000000000000000000000000081526004016122ab9061345d565b60405180910390fd5b6122c060008383611ff1565b6001600360008473ffffffffffffffffffffffffffffffffffffffff1673ffffffffffffffffffffffffffffffffffffffff16815260200190815260200160002060008282546123109190613731565b92505081905550816002600083815260200190815260200160002060006101000a81548173ffffffffffffffffffffffffffffffffffffffff021916908373ffffffffffffffffffffffffffffffffffffffff160217905550808273ffffffffffffffffffffffffffffffffffffffff16600073ffffffffffffffffffffffffffffffffffffffff167fddf252ad1be2c89b69c2b068fc378daa952ba7f163c4a11628f55a4df523b3ef60405160405180910390a45050565b8280546123d5906138fc565b90600052602060002090601f0160209004810192826123f7576000855561243e565b82601f1061241057805160ff191683800117855561243e565b8280016001018555821561243e579182015b8281111561243d578251825591602001919060010190612422565b5b50905061244b919061244f565b5090565b5b80821115612468576000816000905550600101612450565b5090565b600061247f61247a846136a9565b613678565b90508281526020810184848401111561249757600080fd5b6124a28482856138ba565b509392505050565b6000813590506124b981613a75565b92915050565b6000813590506124ce81613a8c565b92915050565b6000813590506124e381613aa3565b92915050565b6000815190506124f881613aa3565b92915050565b600082601f83011261250f57600080fd5b813561251f84826020860161246c565b91505092915050565b60008135905061253781613aba565b92915050565b60006020828403121561254f57600080fd5b600061255d848285016124aa565b91505092915050565b6000806040838503121561257957600080fd5b6000612587858286016124aa565b9250506020612598858286016124aa565b9150509250929050565b6000806000606084860312156125b757600080fd5b60006125c5868287016124aa565b93505060206125d6868287016124aa565b92505060406125e786828701612528565b9150509250925092565b6000806000806080858703121561260757600080fd5b6000612615878288016124aa565b9450506020612626878288016124aa565b935050604061263787828801612528565b925050606085013567ffffffffffffffff81111561265457600080fd5b612660878288016124fe565b91505092959194509250565b6000806040838503121561267f57600080fd5b600061268d858286016124aa565b925050602061269e858286016124bf565b9150509250929050565b600080604083850312156126bb57600080fd5b60006126c9858286016124aa565b92505060206126da85828601612528565b9150509250929050565b6000602082840312156126f657600080fd5b6000612704848285016124d4565b91505092915050565b60006020828403121561271f57600080fd5b600061272d848285016124e9565b91505092915050565b60006020828403121561274857600080fd5b600061275684828501612528565b91505092915050565b61276881613846565b82525050565b61277781613858565b82525050565b6000612788826136ee565b6127928185613704565b93506127a28185602086016138c9565b6127ab81613a64565b840191505092915050565b60006127c1826136f9565b6127cb8185613715565b93506127db8185602086016138c9565b6127e481613a64565b840191505092915050565b60006127fa826136f9565b6128048185613726565b93506128148185602086016138c9565b80840191505092915050565b6000815461282d816138fc565b6128378186613726565b94506001821660008114612852576001811461286357612896565b60ff19831686528186019350612896565b61286c856136d9565b60005b8381101561288e5781548189015260018201915060208101905061286f565b838801955050505b50505092915050565b60006128ac603283613715565b91507f4552433732313a207472616e7366657220746f206e6f6e20455243373231526560008301527f63656976657220696d706c656d656e74657200000000000000000000000000006020830152604082019050919050565b6000612912601c83613715565b91507f4552433732313a20746f6b656e20616c7265616479206d696e746564000000006000830152602082019050919050565b6000612952600a83613726565b91507f54484952445f574f5244000000000000000000000000000000000000000000006000830152600a82019050919050565b6000612992602483613715565b91507f4552433732313a207472616e7366657220746f20746865207a65726f2061646460008301527f72657373000000000000000000000000000000000000000000000000000000006020830152604082019050919050565b60006129f8601983613715565b91507f4552433732313a20617070726f766520746f2063616c6c6572000000000000006000830152602082019050919050565b6000612a38606383613726565b91507f222c20226465736372697074696f6e223a20224120686967686c79206163636c60008301527f61696d656420636f6c6c656374696f6e206f6620737175617265732e222c202260208301527f696d616765223a2022646174613a696d6167652f7376672b786d6c3b6261736560408301527f36342c00000000000000000000000000000000000000000000000000000000006060830152606382019050919050565b6000612aea600b83613726565b91507f5345434f4e445f574f52440000000000000000000000000000000000000000006000830152600b82019050919050565b6000612b2a602c83613715565b91507f4552433732313a206f70657261746f7220717565727920666f72206e6f6e657860008301527f697374656e7420746f6b656e00000000000000000000000000000000000000006020830152604082019050919050565b6000612b90600d83613726565b91507f3c2f746578743e3c2f7376673e000000000000000000000000000000000000006000830152600d82019050919050565b6000612bd0603883613715565b91507f4552433732313a20617070726f76652063616c6c6572206973206e6f74206f7760008301527f6e6572206e6f7220617070726f76656420666f7220616c6c00000000000000006020830152604082019050919050565b6000612c36602a83613715565b91507f4552433732313a2062616c616e636520717565727920666f7220746865207a6560008301527f726f2061646472657373000000000000000000000000000000000000000000006020830152604082019050919050565b6000612c9c602983613715565b91507f4552433732313a206f776e657220717565727920666f72206e6f6e657869737460008301527f656e7420746f6b656e00000000000000000000000000000000000000000000006020830152604082019050919050565b6000612d02602e83613715565b91507f45524337323155524953746f726167653a2055524920736574206f66206e6f6e60008301527f6578697374656e7420746f6b656e0000000000000000000000000000000000006020830152604082019050919050565b6000612d68600283613726565b91507f227d0000000000000000000000000000000000000000000000000000000000006000830152600282019050919050565b6000612da8602083613715565b91507f4552433732313a206d696e7420746f20746865207a65726f20616464726573736000830152602082019050919050565b6000612de8603183613715565b91507f45524337323155524953746f726167653a2055524920717565727920666f722060008301527f6e6f6e6578697374656e7420746f6b656e0000000000000000000000000000006020830152604082019050919050565b6000612e4e602c83613715565b91507f4552433732313a20617070726f76656420717565727920666f72206e6f6e657860008301527f697374656e7420746f6b656e00000000000000000000000000000000000000006020830152604082019050919050565b6000612eb4602983613715565b91507f4552433732313a207472616e73666572206f6620746f6b656e2074686174206960008301527f73206e6f74206f776e00000000000000000000000000000000000000000000006020830152604082019050919050565b6000612f1a602f83613715565b91507f4552433732314d657461646174613a2055524920717565727920666f72206e6f60008301527f6e6578697374656e7420746f6b656e00000000000000000000000000000000006020830152604082019050919050565b6000612f80600a83613726565b91507f7b226e616d65223a2022000000000000000000000000000000000000000000006000830152600a82019050919050565b6000612fc0602183613715565b91507f4552433732313a20617070726f76616c20746f2063757272656e74206f776e6560008301527f72000000000000000000000000000000000000000000000000000000000000006020830152604082019050919050565b6000613026600a83613726565b91507f46495253545f574f5244000000000000000000000000000000000000000000006000830152600a82019050919050565b6000613066601d83613726565b91507f646174613a6170706c69636174696f6e2f6a736f6e3b6261736536342c0000006000830152601d82019050919050565b60006130a6603183613715565b91507f4552433732313a207472616e736665722063616c6c6572206973206e6f74206f60008301527f776e6572206e6f7220617070726f7665640000000000000000000000000000006020830152604082019050919050565b600061310c601a83613715565b91507f4d617820416d6f756e74206f66204e465473204d696e746564210000000000006000830152602082019050919050565b600061314c600583613726565b91507f434f4c4f520000000000000000000000000000000000000000000000000000006000830152600582019050919050565b613188816138b0565b82525050565b600061319a82846127ef565b915081905092915050565b60006131b182856127ef565b91506131bd82846127ef565b91508190509392505050565b60006131d582866127ef565b91506131e182856127ef565b91506131ed82846127ef565b9150819050949350505050565b60006132068287612820565b915061321282866127ef565b915061321e8285612820565b915061322a82846127ef565b915061323582612b83565b915081905095945050505050565b600061324e82612945565b915061325a82846127ef565b915081905092915050565b600061327082612add565b915061327c82846127ef565b915081905092915050565b600061329282612f73565b915061329e82856127ef565b91506132a982612a2b565b91506132b582846127ef565b91506132c082612d5b565b91508190509392505050565b60006132d782613019565b91506132e382846127ef565b915081905092915050565b60006132f982613059565b915061330582846127ef565b915081905092915050565b600061331b8261313f565b915061332782846127ef565b915081905092915050565b6000602082019050613347600083018461275f565b92915050565b6000608082019050613362600083018761275f565b61336f602083018661275f565b61337c604083018561317f565b818103606083015261338e818461277d565b905095945050505050565b60006040820190506133ae600083018561275f565b6133bb602083018461317f565b9392505050565b60006020820190506133d7600083018461276e565b92915050565b600060208201905081810360008301526133f781846127b6565b905092915050565b6000606082019050818103600083015261341981866127b6565b9050613428602083018561317f565b613435604083018461275f565b949350505050565b600060208201905081810360008301526134568161289f565b9050919050565b6000602082019050818103600083015261347681612905565b9050919050565b6000602082019050818103600083015261349681612985565b9050919050565b600060208201905081810360008301526134b6816129eb565b9050919050565b600060208201905081810360008301526134d681612b1d565b9050919050565b600060208201905081810360008301526134f681612bc3565b9050919050565b6000602082019050818103600083015261351681612c29565b9050919050565b6000602082019050818103600083015261353681612c8f565b9050919050565b6000602082019050818103600083015261355681612cf5565b9050919050565b6000602082019050818103600083015261357681612d9b565b9050919050565b6000602082019050818103600083015261359681612ddb565b9050919050565b600060208201905081810360008301526135b681612e41565b9050919050565b600060208201905081810360008301526135d681612ea7565b9050919050565b600060208201905081810360008301526135f681612f0d565b9050919050565b6000602082019050818103600083015261361681612fb3565b9050919050565b6000602082019050818103600083015261363681613099565b9050919050565b60006020820190508181036000830152613656816130ff565b9050919050565b6000602082019050613672600083018461317f565b92915050565b6000604051905081810181811067ffffffffffffffff8211171561369f5761369e613a35565b5b8060405250919050565b600067ffffffffffffffff8211156136c4576136c3613a35565b5b601f19601f8301169050602081019050919050565b60008190508160005260206000209050919050565b600081519050919050565b600081519050919050565b600082825260208201905092915050565b600082825260208201905092915050565b600081905092915050565b600061373c826138b0565b9150613747836138b0565b9250827fffffffffffffffffffffffffffffffffffffffffffffffffffffffffffffffff0382111561377c5761377b6139a8565b5b828201905092915050565b6000613792826138b0565b915061379d836138b0565b9250826137ad576137ac6139d7565b5b828204905092915050565b60006137c3826138b0565b91506137ce836138b0565b9250817fffffffffffffffffffffffffffffffffffffffffffffffffffffffffffffffff0483118215151615613807576138066139a8565b5b828202905092915050565b600061381d826138b0565b9150613828836138b0565b92508282101561383b5761383a6139a8565b5b828203905092915050565b600061385182613890565b9050919050565b60008115159050919050565b60007fffffffff0000000000000000000000000000000000000000000000000000000082169050919050565b600073ffffffffffffffffffffffffffffffffffffffff82169050919050565b6000819050919050565b82818337600083830152505050565b60005b838110156138e75780820151818401526020810190506138cc565b838111156138f6576000848401525b50505050565b6000600282049050600182168061391457607f821691505b6020821081141561392857613927613a06565b5b50919050565b6000613939826138b0565b91507fffffffffffffffffffffffffffffffffffffffffffffffffffffffffffffffff82141561396c5761396b6139a8565b5b600182019050919050565b6000613982826138b0565b915061398d836138b0565b92508261399d5761399c6139d7565b5b828206905092915050565b7f4e487b7100000000000000000000000000000000000000000000000000000000600052601160045260246000fd5b7f4e487b7100000000000000000000000000000000000000000000000000000000600052601260045260246000fd5b7f4e487b7100000000000000000000000000000000000000000000000000000000600052602260045260246000fd5b7f4e487b7100000000000000000000000000000000000000000000000000000000600052604160045260246000fd5b6000601f19601f8301169050919050565b613a7e81613846565b8114613a8957600080fd5b50565b613a9581613858565b8114613aa057600080fd5b50565b613aac81613864565b8114613ab757600080fd5b50565b613ac3816138b0565b8114613ace57600080fd5b5056fe416e204e465420772f20494420257320686173206265656e206d696e74656420746f2025734142434445464748494a4b4c4d4e4f505152535455565758595a6162636465666768696a6b6c6d6e6f707172737475767778797a303132333435363738392b2fa2646970667358221220153ec76d4fc3afb87fa4afdfa98ad679273dff81ead4e671eb0467d20ada745464736f6c634300080000333c73766720786d6c6e733d27687474703a2f2f7777772e77332e6f72672f323030302f73766727207072657365727665417370656374526174696f3d27784d696e594d696e206d656574272076696577426f783d273020302033353020333530273e3c7374796c653e2e62617365207b2066696c6c3a2077686974653b20666f6e742d66616d696c793a2073657269663b20666f6e742d73697a653a20323470783b207d3c2f7374796c653e3c726563742077696474683d273130302527206865696768743d2731303025272066696c6c3d27272f3e3c7465787420783d273530252720793d273530252720636c6173733d27626173652720646f6d696e616e742d626173656c696e653d276d6964646c652720746578742d616e63686f723d276d6964646c65273e",
  "linkReferences": {},
  "deployedLinkReferences": {}
}